{
  "contractName": "Kittycontract",
  "abi": [
    {
      "anonymous": false,
      "inputs": [
        {
          "indexed": true,
          "internalType": "address",
          "name": "owner",
          "type": "address"
        },
        {
          "indexed": true,
          "internalType": "address",
          "name": "approved",
          "type": "address"
        },
        {
          "indexed": true,
          "internalType": "uint256",
          "name": "tokenId",
          "type": "uint256"
        }
      ],
      "name": "Approval",
      "type": "event"
    },
    {
      "anonymous": false,
      "inputs": [
        {
          "indexed": false,
          "internalType": "address",
          "name": "owner",
          "type": "address"
        },
        {
          "indexed": false,
          "internalType": "uint256",
          "name": "kittenId",
          "type": "uint256"
        },
        {
          "indexed": false,
          "internalType": "uint256",
          "name": "momId",
          "type": "uint256"
        },
        {
          "indexed": false,
          "internalType": "uint256",
          "name": "dadId",
          "type": "uint256"
        },
        {
          "indexed": false,
          "internalType": "uint256",
          "name": "genes",
          "type": "uint256"
        }
      ],
      "name": "Birth",
      "type": "event"
    },
    {
      "anonymous": false,
      "inputs": [
        {
          "indexed": true,
          "internalType": "address",
          "name": "previousOwner",
          "type": "address"
        },
        {
          "indexed": true,
          "internalType": "address",
          "name": "newOwner",
          "type": "address"
        }
      ],
      "name": "OwnershipTransferred",
      "type": "event"
    },
    {
      "anonymous": false,
      "inputs": [
        {
          "indexed": true,
          "internalType": "address",
          "name": "from",
          "type": "address"
        },
        {
          "indexed": true,
          "internalType": "address",
          "name": "to",
          "type": "address"
        },
        {
          "indexed": true,
          "internalType": "uint256",
          "name": "tokenId",
          "type": "uint256"
        }
      ],
      "name": "Transfer",
      "type": "event"
    },
    {
      "inputs": [],
      "name": "CREATION_LIMIT_GEN0",
      "outputs": [
        {
          "internalType": "uint256",
          "name": "",
          "type": "uint256"
        }
      ],
      "stateMutability": "view",
      "type": "function"
    },
    {
      "inputs": [],
      "name": "gen0Counter",
      "outputs": [
        {
          "internalType": "uint256",
          "name": "",
          "type": "uint256"
        }
      ],
      "stateMutability": "view",
      "type": "function"
    },
    {
      "inputs": [
        {
          "internalType": "uint256",
          "name": "",
          "type": "uint256"
        }
      ],
      "name": "kittyIndexToOwner",
      "outputs": [
        {
          "internalType": "address",
          "name": "",
          "type": "address"
        }
      ],
      "stateMutability": "view",
      "type": "function"
    },
    {
      "inputs": [],
      "name": "name",
      "outputs": [
        {
          "internalType": "string",
          "name": "",
          "type": "string"
        }
      ],
      "stateMutability": "view",
      "type": "function"
    },
    {
      "inputs": [],
      "name": "owner",
      "outputs": [
        {
          "internalType": "address",
          "name": "",
          "type": "address"
        }
      ],
      "stateMutability": "view",
      "type": "function"
    },
    {
      "inputs": [],
      "name": "renounceOwnership",
      "outputs": [],
      "stateMutability": "nonpayable",
      "type": "function"
    },
    {
      "inputs": [],
      "name": "symbol",
      "outputs": [
        {
          "internalType": "string",
          "name": "",
          "type": "string"
        }
      ],
      "stateMutability": "view",
      "type": "function"
    },
    {
      "inputs": [
        {
          "internalType": "address",
          "name": "newOwner",
          "type": "address"
        }
      ],
      "name": "transferOwnership",
      "outputs": [],
      "stateMutability": "nonpayable",
      "type": "function"
    },
    {
      "inputs": [
        {
          "internalType": "uint256",
          "name": "_id",
          "type": "uint256"
        }
      ],
      "name": "getKitty",
      "outputs": [
        {
          "internalType": "uint256",
          "name": "genes",
          "type": "uint256"
        },
        {
          "internalType": "uint256",
          "name": "birthTime",
          "type": "uint256"
        },
        {
          "internalType": "uint256",
          "name": "momId",
          "type": "uint256"
        },
        {
          "internalType": "uint256",
          "name": "dadId",
          "type": "uint256"
        },
        {
          "internalType": "uint256",
          "name": "generation",
          "type": "uint256"
        }
      ],
      "stateMutability": "view",
      "type": "function"
    },
    {
      "inputs": [
        {
          "internalType": "uint256",
          "name": "_genes",
          "type": "uint256"
        }
      ],
      "name": "createKittyGen0",
      "outputs": [
        {
          "internalType": "uint256",
          "name": "",
          "type": "uint256"
        }
      ],
      "stateMutability": "nonpayable",
      "type": "function"
    },
    {
      "inputs": [
        {
          "internalType": "address",
          "name": "owner",
          "type": "address"
        }
      ],
      "name": "balanceOf",
      "outputs": [
        {
          "internalType": "uint256",
          "name": "",
          "type": "uint256"
        }
      ],
      "stateMutability": "view",
      "type": "function"
    },
    {
      "inputs": [],
      "name": "totalSupply",
      "outputs": [
        {
          "internalType": "uint256",
          "name": "",
          "type": "uint256"
        }
      ],
      "stateMutability": "view",
      "type": "function"
    },
    {
      "inputs": [],
      "name": "catName",
      "outputs": [
        {
          "internalType": "string",
          "name": "",
          "type": "string"
        }
      ],
      "stateMutability": "pure",
      "type": "function"
    },
    {
      "inputs": [],
      "name": "catSymbol",
      "outputs": [
        {
          "internalType": "string",
          "name": "",
          "type": "string"
        }
      ],
      "stateMutability": "pure",
      "type": "function"
    },
    {
      "inputs": [
        {
          "internalType": "uint256",
          "name": "tokenId",
          "type": "uint256"
        }
      ],
      "name": "ownerOf",
      "outputs": [
        {
          "internalType": "address",
          "name": "",
          "type": "address"
        }
      ],
      "stateMutability": "view",
      "type": "function"
    },
    {
      "inputs": [
        {
          "internalType": "address",
          "name": "_to",
          "type": "address"
        },
        {
          "internalType": "uint256",
          "name": "_tokenId",
          "type": "uint256"
        }
      ],
      "name": "transfer",
      "outputs": [],
      "stateMutability": "view",
      "type": "function"
    }
  ],
  "bytecode": "0x608060405234801561001057600080fd5b5061002d61002261003260201b60201c565b61003a60201b60201c565b6100fe565b600033905090565b60008060009054906101000a900473ffffffffffffffffffffffffffffffffffffffff169050816000806101000a81548173ffffffffffffffffffffffffffffffffffffffff021916908373ffffffffffffffffffffffffffffffffffffffff1602179055508173ffffffffffffffffffffffffffffffffffffffff168173ffffffffffffffffffffffffffffffffffffffff167f8be0079c531659141344cd1fd0a4f28419497f9722a3daafe3b4186f6b6457e060405160405180910390a35050565b61139e8061010d6000396000f3fe608060405234801561001057600080fd5b50600436106101005760003560e01c8063a45f4bfc11610097578063d5a776ca11610066578063d5a776ca1461028d578063e98b7f4d146102bd578063ef5e94aa146102f1578063f2fde38b1461030f57610100565b8063a45f4bfc14610205578063a9059cbb14610235578063a95fb23b14610251578063b48343301461026f57610100565b8063715018a6116100d3578063715018a6146101a15780638da5cb5b146101ab578063958b37f9146101c957806395d89b41146101e757610100565b806306fdde031461010557806318160ddd146101235780636352211e1461014157806370a0823114610171575b600080fd5b61010d61032b565b60405161011a9190610fba565b60405180910390f35b61012b610364565b604051610138919061105c565b60405180910390f35b61015b60048036038101906101569190610e3c565b610371565b6040516101689190610f4c565b60405180910390f35b61018b60048036038101906101869190610dcf565b61041a565b604051610198919061105c565b60405180910390f35b6101a9610463565b005b6101b36104eb565b6040516101c09190610f4c565b60405180910390f35b6101d1610514565b6040516101de9190610fba565b60405180910390f35b6101ef610551565b6040516101fc9190610fba565b60405180910390f35b61021f600480360381019061021a9190610e3c565b61058a565b60405161022c9190610f4c565b60405180910390f35b61024f600480360381019061024a9190610dfc565b6105bd565b005b61025961070b565b6040516102669190610fba565b60405180910390f35b610277610748565b604051610284919061105c565b60405180910390f35b6102a760048036038101906102a29190610e3c565b61074d565b6040516102b4919061105c565b60405180910390f35b6102d760048036038101906102d29190610e3c565b610808565b6040516102e8959493929190611077565b60405180910390f35b6102f96108be565b604051610306919061105c565b60405180910390f35b61032960048036038101906103249190610dcf565b6108c4565b005b6040518060400160405280600d81526020017f4d69636b65794b6974746965730000000000000000000000000000000000000081525081565b6000600180549050905090565b60008073ffffffffffffffffffffffffffffffffffffffff166002600084815260200190815260200160002060009054906101000a900473ffffffffffffffffffffffffffffffffffffffff1673ffffffffffffffffffffffffffffffffffffffff1614156103df57600080fd5b6002600083815260200190815260200160002060009054906101000a900473ffffffffffffffffffffffffffffffffffffffff169050919050565b6000600360008373ffffffffffffffffffffffffffffffffffffffff1673ffffffffffffffffffffffffffffffffffffffff168152602001908152602001600020549050919050565b61046b6109bc565b73ffffffffffffffffffffffffffffffffffffffff166104896104eb565b73ffffffffffffffffffffffffffffffffffffffff16146104df576040517f08c379a00000000000000000000000000000000000000000000000000000000081526004016104d690610ffc565b60405180910390fd5b6104e960006109c4565b565b60008060009054906101000a900473ffffffffffffffffffffffffffffffffffffffff16905090565b60606040518060400160405280600d81526020017f4d69636b65794b69747469657300000000000000000000000000000000000000815250905090565b6040518060400160405280600281526020017f474700000000000000000000000000000000000000000000000000000000000081525081565b60026020528060005260406000206000915054906101000a900473ffffffffffffffffffffffffffffffffffffffff1681565b600073ffffffffffffffffffffffffffffffffffffffff168273ffffffffffffffffffffffffffffffffffffffff16141561062d576040517f08c379a00000000000000000000000000000000000000000000000000000000081526004016106249061101c565b60405180910390fd5b3073ffffffffffffffffffffffffffffffffffffffff168273ffffffffffffffffffffffffffffffffffffffff16141561069c576040517f08c379a00000000000000000000000000000000000000000000000000000000081526004016106939061103c565b60405180910390fd5b3373ffffffffffffffffffffffffffffffffffffffff166002600083815260200190815260200160002060009054906101000a900473ffffffffffffffffffffffffffffffffffffffff1673ffffffffffffffffffffffffffffffffffffffff161461070757600080fd5b5050565b60606040518060400160405280600281526020017f4747000000000000000000000000000000000000000000000000000000000000815250905090565b600a81565b60006107576109bc565b73ffffffffffffffffffffffffffffffffffffffff166107756104eb565b73ffffffffffffffffffffffffffffffffffffffff16146107cb576040517f08c379a00000000000000000000000000000000000000000000000000000000081526004016107c290610ffc565b60405180910390fd5b600a600454106107da57600080fd5b600460008154809291906107ed906111b3565b919050555061080160008060008533610a88565b9050919050565b600080600080600080600187815481106108255761082461122b565b5b906000526020600020906002020190508060010160009054906101000a900467ffffffffffffffff1667ffffffffffffffff1694508060010160089054906101000a900463ffffffff1663ffffffff16935080600101600c9054906101000a900463ffffffff1663ffffffff1692508060010160109054906101000a900461ffff1661ffff169150806000015495505091939590929450565b60045481565b6108cc6109bc565b73ffffffffffffffffffffffffffffffffffffffff166108ea6104eb565b73ffffffffffffffffffffffffffffffffffffffff1614610940576040517f08c379a000000000000000000000000000000000000000000000000000000000815260040161093790610ffc565b60405180910390fd5b600073ffffffffffffffffffffffffffffffffffffffff168173ffffffffffffffffffffffffffffffffffffffff1614156109b0576040517f08c379a00000000000000000000000000000000000000000000000000000000081526004016109a790610fdc565b60405180910390fd5b6109b9816109c4565b50565b600033905090565b60008060009054906101000a900473ffffffffffffffffffffffffffffffffffffffff169050816000806101000a81548173ffffffffffffffffffffffffffffffffffffffff021916908373ffffffffffffffffffffffffffffffffffffffff1602179055508173ffffffffffffffffffffffffffffffffffffffff168173ffffffffffffffffffffffffffffffffffffffff167f8be0079c531659141344cd1fd0a4f28419497f9722a3daafe3b4186f6b6457e060405160405180910390a35050565b6000806040518060a001604052808581526020014267ffffffffffffffff1681526020018863ffffffff1681526020018763ffffffff1681526020018661ffff16815250905060018190806001815401808255809150506001900390600052602060002090600202016000909190919091506000820151816000015560208201518160010160006101000a81548167ffffffffffffffff021916908367ffffffffffffffff16021790555060408201518160010160086101000a81548163ffffffff021916908363ffffffff160217905550606082015181600101600c6101000a81548163ffffffff021916908363ffffffff16021790555060808201518160010160106101000a81548161ffff021916908361ffff1602179055505050600060018080549050610bb991906110e6565b90507f0a5311bd2a6608f08a180df2ee7c5946819a649b204b554bb8e39825b2c50ad584828a8a89604051610bf2959493929190610f67565b60405180910390a1610c0660008583610c14565b809250505095945050505050565b600360008373ffffffffffffffffffffffffffffffffffffffff1673ffffffffffffffffffffffffffffffffffffffff1681526020019081526020016000206000815480929190610c64906111b3565b9190505550816002600083815260200190815260200160002060006101000a81548173ffffffffffffffffffffffffffffffffffffffff021916908373ffffffffffffffffffffffffffffffffffffffff160217905550600073ffffffffffffffffffffffffffffffffffffffff168373ffffffffffffffffffffffffffffffffffffffff1614610d4557600360008473ffffffffffffffffffffffffffffffffffffffff1673ffffffffffffffffffffffffffffffffffffffff1681526020019081526020016000206000815480929190610d3f90611189565b91905055505b808273ffffffffffffffffffffffffffffffffffffffff168473ffffffffffffffffffffffffffffffffffffffff167fddf252ad1be2c89b69c2b068fc378daa952ba7f163c4a11628f55a4df523b3ef60405160405180910390a4505050565b600081359050610db48161133a565b92915050565b600081359050610dc981611351565b92915050565b600060208284031215610de557610de461125a565b5b6000610df384828501610da5565b91505092915050565b60008060408385031215610e1357610e1261125a565b5b6000610e2185828601610da5565b9250506020610e3285828601610dba565b9150509250929050565b600060208284031215610e5257610e5161125a565b5b6000610e6084828501610dba565b91505092915050565b610e728161111a565b82525050565b6000610e83826110ca565b610e8d81856110d5565b9350610e9d818560208601611156565b610ea68161125f565b840191505092915050565b6000610ebe6026836110d5565b9150610ec982611270565b604082019050919050565b6000610ee16020836110d5565b9150610eec826112bf565b602082019050919050565b6000610f04601a836110d5565b9150610f0f826112e8565b602082019050919050565b6000610f27601b836110d5565b9150610f3282611311565b602082019050919050565b610f468161114c565b82525050565b6000602082019050610f616000830184610e69565b92915050565b600060a082019050610f7c6000830188610e69565b610f896020830187610f3d565b610f966040830186610f3d565b610fa36060830185610f3d565b610fb06080830184610f3d565b9695505050505050565b60006020820190508181036000830152610fd48184610e78565b905092915050565b60006020820190508181036000830152610ff581610eb1565b9050919050565b6000602082019050818103600083015261101581610ed4565b9050919050565b6000602082019050818103600083015261103581610ef7565b9050919050565b6000602082019050818103600083015261105581610f1a565b9050919050565b60006020820190506110716000830184610f3d565b92915050565b600060a08201905061108c6000830188610f3d565b6110996020830187610f3d565b6110a66040830186610f3d565b6110b36060830185610f3d565b6110c06080830184610f3d565b9695505050505050565b600081519050919050565b600082825260208201905092915050565b60006110f18261114c565b91506110fc8361114c565b92508282101561110f5761110e6111fc565b5b828203905092915050565b60006111258261112c565b9050919050565b600073ffffffffffffffffffffffffffffffffffffffff82169050919050565b6000819050919050565b60005b83811015611174578082015181840152602081019050611159565b83811115611183576000848401525b50505050565b60006111948261114c565b915060008214156111a8576111a76111fc565b5b600182039050919050565b60006111be8261114c565b91507fffffffffffffffffffffffffffffffffffffffffffffffffffffffffffffffff8214156111f1576111f06111fc565b5b600182019050919050565b7f4e487b7100000000000000000000000000000000000000000000000000000000600052601160045260246000fd5b7f4e487b7100000000000000000000000000000000000000000000000000000000600052603260045260246000fd5b600080fd5b6000601f19601f8301169050919050565b7f4f776e61626c653a206e6577206f776e657220697320746865207a65726f206160008201527f6464726573730000000000000000000000000000000000000000000000000000602082015250565b7f4f776e61626c653a2063616c6c6572206973206e6f7420746865206f776e6572600082015250565b7f5f746f2063616e742062652061207a65726f2061646472657373000000000000600082015250565b7f6e6f74207468652073616d652061646472657373206173205f746f0000000000600082015250565b6113438161111a565b811461134e57600080fd5b50565b61135a8161114c565b811461136557600080fd5b5056fea2646970667358221220d048d49d6e3ac770c484ca236ad1d6278647209c22610f6c8841bf3105570c1664736f6c63430008050033",
  "immutableReferences": {},
  "source": "// SPDX-License-Identifier: MIT\npragma solidity >=0.4.22 <0.9.0;\n\nimport \"./IERC721.sol\";\nimport \"./Ownable.sol\";\n\n contract Kittycontract is IERC721, Ownable {\n    \n    // Gen 0 Creation Limit\n    uint256 public constant CREATION_LIMIT_GEN0 = 10;\n\n    // Token name\n    string public constant override name = \"MickeyKitties\";\n\n    // Token symbol\n    string public constant override symbol = \"GG\";\n\n    event Birth(address owner, uint256 kittenId, uint256 momId, uint256 dadId, uint256 genes);\n\n\n    struct Kitty {\n        uint256 genes;\n        uint64 birthTime;\n        uint32 momId;\n        uint32 dadId;\n        uint16 generation;\n    }\n\n    Kitty[] kitties;\n\n    mapping (uint256 => address) public kittyIndexToOwner; // tokenId => kitty owner\n    mapping (address => uint) ownershipTokenCount; //count of how many kitties each owner has\n\n    uint256 public gen0Counter;\n\n\n    function getKitty(uint256 _id) external view returns (\n        uint256 genes,\n        uint256 birthTime,\n        uint256 momId,\n        uint256 dadId,\n        uint256 generation\n    )\n    {\n        Kitty storage kitty = kitties[_id];\n\n        birthTime = uint256(kitty.birthTime);\n        momId = uint256(kitty.momId);\n        dadId = uint256(kitty.dadId);\n        generation = uint256(kitty.generation);\n        genes = kitty.genes;\n    }\n    \n    function createKittyGen0(uint256 _genes) public onlyOwner returns (uint256) {\n        require(gen0Counter < CREATION_LIMIT_GEN0);\n\n        gen0Counter++;\n\n        return _createKitty(0, 0, 0, _genes, msg.sender);\n    }\n\n    function _createKitty(\n        uint256 _momId,\n        uint256 _dadId,\n        uint256 _generation,\n        uint256 _genes,\n        address _owner\n    )  private returns (uint256) {\n        Kitty memory _kitty = Kitty({\n            genes: _genes,\n            birthTime: uint64(block.timestamp),\n            momId: uint32(_momId),\n            dadId: uint32(_dadId),\n            generation: uint16(_generation)\n        });\n\n         kitties.push(_kitty); \n       uint256 newKittenId = kitties.length - 1;\n\n        emit Birth(_owner, newKittenId, _momId, _dadId, _genes);\n\n        _transfer(address(0), _owner, newKittenId);\n\n        return newKittenId;\n    }\n\n     //Returns the number of tokens in ``owner``'s account.\n    function balanceOf(address owner) external view override returns (uint256) {\n        return ownershipTokenCount[owner];\n    }\n\n    /*\n     * @dev Returns the total number of tokens in circulation.\n     */\n    function totalSupply() external view override returns (uint256){\n        return kitties.length;\n    }\n    /*\n     * @dev Returns the name of the token.\n     */\n    function catName() external pure returns (string memory){\n        return name;\n    }\n    /*\n     * @dev Returns the symbol of the token.\n     */\n    function catSymbol()  external pure returns (string memory) {\n        return symbol;\n    }\n    /**\n     * @dev Returns the owner of the `tokenId` token.\n     *\n     * Requirements:\n     *\n     * - `tokenId` must exist.\n     */\n    function ownerOf(uint256 tokenId) external view override returns (address){\n        require(kittyIndexToOwner[tokenId] != address(0));\n        return kittyIndexToOwner[tokenId];\n    }\n\n    function transfer(address _to,uint256 _tokenId) external override view {\n\n        require(_to != address(0), \"_to cant be a zero address\");\n        require(_to != address(this), \"not the same address as _to\");\n        require(kittyIndexToOwner[_tokenId] == msg.sender);\n    }\n\n\n    function _transfer(address _from, address _to, uint256 tokenId) internal {\n        ownershipTokenCount[_to]++;\n\n        kittyIndexToOwner[tokenId] = _to;\n\n        if (_from != address(0)) {\n            ownershipTokenCount[_from]--;\n        }\n\n        // Emit the transfer event\n        emit Transfer(_from, _to, tokenId);\n\n    }\n\n }   \n",
  "sourcePath": "/Users/michaelmcclimon/Dropbox/Coding-Projects/Kitties-dapp/contracts/Kittycontract.sol",
  "compiler": {
    "name": "solc",
    "version": "0.8.5+commit.a4f2e591.Emscripten.clang"
  },
  "schemaVersion": "3.4.2",
  "updatedAt": "2021-08-06T20:46:26.041Z",
  "devdoc": {
    "kind": "dev",
    "methods": {
      "balanceOf(address)": {
        "details": "Returns the number of tokens in ``owner``'s account."
      },
      "owner()": {
        "details": "Returns the address of the current owner."
      },
      "ownerOf(uint256)": {
        "details": "Returns the owner of the `tokenId` token. Requirements: - `tokenId` must exist."
      },
      "renounceOwnership()": {
        "details": "Leaves the contract without owner. It will not be possible to call `onlyOwner` functions anymore. Can only be called by the current owner. NOTE: Renouncing ownership will leave the contract without an owner, thereby removing any functionality that is only available to the owner."
      },
      "transferOwnership(address)": {
        "details": "Transfers ownership of the contract to a new account (`newOwner`). Can only be called by the current owner."
      }
    },
    "version": 1
  },
  "userdoc": {
    "kind": "user",
    "methods": {},
    "version": 1
  }
}